{
  "_format": "hh-sol-artifact-1",
  "contractName": "AtomicSwap",
  "sourceName": "contracts/AtomicSwap.sol",
  "abi": [
    {
      "anonymous": false,
      "inputs": [
        {
          "indexed": true,
          "internalType": "bytes32",
          "name": "swapId",
          "type": "bytes32"
        }
      ],
      "name": "SwapCancelled",
      "type": "event"
    },
    {
      "anonymous": false,
      "inputs": [
        {
          "indexed": true,
          "internalType": "bytes32",
          "name": "swapId",
          "type": "bytes32"
        },
        {
          "indexed": true,
          "internalType": "address",
          "name": "buyer",
          "type": "address"
        },
        {
          "indexed": true,
          "internalType": "address",
          "name": "seller",
          "type": "address"
        }
      ],
      "name": "SwapExecuted",
      "type": "event"
    },
    {
      "anonymous": false,
      "inputs": [
        {
          "indexed": true,
          "internalType": "bytes32",
          "name": "swapId",
          "type": "bytes32"
        },
        {
          "indexed": true,
          "internalType": "address",
          "name": "buyer",
          "type": "address"
        },
        {
          "indexed": true,
          "internalType": "address",
          "name": "seller",
          "type": "address"
        },
        {
          "indexed": false,
          "internalType": "string",
          "name": "symbol",
          "type": "string"
        },
        {
          "indexed": false,
          "internalType": "uint256",
          "name": "qty",
          "type": "uint256"
        }
      ],
      "name": "SwapInitiated",
      "type": "event"
    },
    {
      "inputs": [
        {
          "internalType": "bytes32",
          "name": "swapId",
          "type": "bytes32"
        }
      ],
      "name": "cancelSwap",
      "outputs": [],
      "stateMutability": "nonpayable",
      "type": "function"
    },
    {
      "inputs": [
        {
          "internalType": "bytes32",
          "name": "swapId",
          "type": "bytes32"
        }
      ],
      "name": "confirmSwap",
      "outputs": [],
      "stateMutability": "nonpayable",
      "type": "function"
    },
    {
      "inputs": [
        {
          "internalType": "bytes32",
          "name": "swapId",
          "type": "bytes32"
        }
      ],
      "name": "getSwap",
      "outputs": [
        {
          "components": [
            {
              "internalType": "bytes32",
              "name": "swapId",
              "type": "bytes32"
            },
            {
              "internalType": "address",
              "name": "buyer",
              "type": "address"
            },
            {
              "internalType": "address",
              "name": "seller",
              "type": "address"
            },
            {
              "internalType": "uint256",
              "name": "amount",
              "type": "uint256"
            },
            {
              "internalType": "string",
              "name": "symbol",
              "type": "string"
            },
            {
              "internalType": "uint256",
              "name": "qty",
              "type": "uint256"
            },
            {
              "internalType": "bool",
              "name": "executed",
              "type": "bool"
            },
            {
              "internalType": "bool",
              "name": "cancelled",
              "type": "bool"
            }
          ],
          "internalType": "struct AtomicSwap.Swap",
          "name": "",
          "type": "tuple"
        }
      ],
      "stateMutability": "view",
      "type": "function"
    },
    {
      "inputs": [
        {
          "internalType": "address",
          "name": "seller",
          "type": "address"
        },
        {
          "internalType": "string",
          "name": "symbol",
          "type": "string"
        },
        {
          "internalType": "uint256",
          "name": "qty",
          "type": "uint256"
        }
      ],
      "name": "initiateSwap",
      "outputs": [
        {
          "internalType": "bytes32",
          "name": "swapId",
          "type": "bytes32"
        }
      ],
      "stateMutability": "payable",
      "type": "function"
    },
    {
      "inputs": [
        {
          "internalType": "bytes32",
          "name": "",
          "type": "bytes32"
        }
      ],
      "name": "swaps",
      "outputs": [
        {
          "internalType": "bytes32",
          "name": "swapId",
          "type": "bytes32"
        },
        {
          "internalType": "address",
          "name": "buyer",
          "type": "address"
        },
        {
          "internalType": "address",
          "name": "seller",
          "type": "address"
        },
        {
          "internalType": "uint256",
          "name": "amount",
          "type": "uint256"
        },
        {
          "internalType": "string",
          "name": "symbol",
          "type": "string"
        },
        {
          "internalType": "uint256",
          "name": "qty",
          "type": "uint256"
        },
        {
          "internalType": "bool",
          "name": "executed",
          "type": "bool"
        },
        {
          "internalType": "bool",
          "name": "cancelled",
          "type": "bool"
        }
      ],
      "stateMutability": "view",
      "type": "function"
    }
  ],
  "bytecode": "0x608060405234801561001057600080fd5b50611eed806100206000396000f3fe60806040526004361061004a5760003560e01c80633da0e66e1461004f57806343a827c61461008c578063d1a3d399146100bc578063d541beb3146100e5578063eb84e7f21461010e575b600080fd5b34801561005b57600080fd5b5061007660048036038101906100719190610f86565b610152565b6040516100839190611177565b60405180910390f35b6100a660048036038101906100a19190611326565b610311565b6040516100b391906113a4565b60405180910390f35b3480156100c857600080fd5b506100e360048036038101906100de9190610f86565b6106f0565b005b3480156100f157600080fd5b5061010c60048036038101906101079190610f86565b610a53565b005b34801561011a57600080fd5b5061013560048036038101906101309190610f86565b610d9a565b604051610149989796959493929190611436565b60405180910390f35b61015a610ec4565b60008083815260200190815260200160002060405180610100016040529081600082015481526020016001820160009054906101000a900473ffffffffffffffffffffffffffffffffffffffff1673ffffffffffffffffffffffffffffffffffffffff1673ffffffffffffffffffffffffffffffffffffffff1681526020016002820160009054906101000a900473ffffffffffffffffffffffffffffffffffffffff1673ffffffffffffffffffffffffffffffffffffffff1673ffffffffffffffffffffffffffffffffffffffff16815260200160038201548152602001600482018054610248906114ea565b80601f0160208091040260200160405190810160405280929190818152602001828054610274906114ea565b80156102c15780601f10610296576101008083540402835291602001916102c1565b820191906000526020600020905b8154815290600101906020018083116102a457829003601f168201915b50505050508152602001600582015481526020016006820160009054906101000a900460ff161515151581526020016006820160019054906101000a900460ff1615151515815250509050919050565b6000803411610355576040517f08c379a000000000000000000000000000000000000000000000000000000000815260040161034c90611567565b60405180910390fd5b600073ffffffffffffffffffffffffffffffffffffffff168473ffffffffffffffffffffffffffffffffffffffff16036103c4576040517f08c379a00000000000000000000000000000000000000000000000000000000081526004016103bb906115d3565b60405180910390fd5b3373ffffffffffffffffffffffffffffffffffffffff168473ffffffffffffffffffffffffffffffffffffffff1603610432576040517f08c379a00000000000000000000000000000000000000000000000000000000081526004016104299061163f565b60405180910390fd5b60008211610475576040517f08c379a000000000000000000000000000000000000000000000000000000000815260040161046c906116ab565b60405180910390fd5b338484844260405160200161048e959493929190611770565b604051602081830303815290604052805190602001209050600080600083815260200190815260200160002060030154146104fe576040517f08c379a00000000000000000000000000000000000000000000000000000000081526004016104f590611817565b60405180910390fd5b6040518061010001604052808281526020013373ffffffffffffffffffffffffffffffffffffffff1681526020018573ffffffffffffffffffffffffffffffffffffffff168152602001348152602001848152602001838152602001600015158152602001600015158152506000808381526020019081526020016000206000820151816000015560208201518160010160006101000a81548173ffffffffffffffffffffffffffffffffffffffff021916908373ffffffffffffffffffffffffffffffffffffffff16021790555060408201518160020160006101000a81548173ffffffffffffffffffffffffffffffffffffffff021916908373ffffffffffffffffffffffffffffffffffffffff16021790555060608201518160030155608082015181600401908161063391906119e3565b5060a0820151816005015560c08201518160060160006101000a81548160ff02191690831515021790555060e08201518160060160016101000a81548160ff0219169083151502179055509050508373ffffffffffffffffffffffffffffffffffffffff163373ffffffffffffffffffffffffffffffffffffffff16827fafb13df7d23296ed957393c63547ffd5fd39ebcfc11bff8f87b653d86772daae86866040516106e1929190611ab5565b60405180910390a49392505050565b8060008060008381526020019081526020016000206003015411610749576040517f08c379a000000000000000000000000000000000000000000000000000000000815260040161074090611b31565b60405180910390fd5b8160008082815260200190815260200160002060060160009054906101000a900460ff16156107ad576040517f08c379a00000000000000000000000000000000000000000000000000000000081526004016107a490611b9d565b60405180910390fd5b60008082815260200190815260200160002060060160019054906101000a900460ff1615610810576040517f08c379a000000000000000000000000000000000000000000000000000000000815260040161080790611c09565b60405180910390fd5b600080600085815260200190815260200160002090508060020160009054906101000a900473ffffffffffffffffffffffffffffffffffffffff1673ffffffffffffffffffffffffffffffffffffffff163373ffffffffffffffffffffffffffffffffffffffff16146108b8576040517f08c379a00000000000000000000000000000000000000000000000000000000081526004016108af90611c9b565b60405180910390fd5b60018160060160006101000a81548160ff02191690831515021790555060008160020160009054906101000a900473ffffffffffffffffffffffffffffffffffffffff1673ffffffffffffffffffffffffffffffffffffffff16826003015460405161092390611cec565b60006040518083038185875af1925050503d8060008114610960576040519150601f19603f3d011682016040523d82523d6000602084013e610965565b606091505b50509050806109a9576040517f08c379a00000000000000000000000000000000000000000000000000000000081526004016109a090611d73565b60405180910390fd5b8160020160009054906101000a900473ffffffffffffffffffffffffffffffffffffffff1673ffffffffffffffffffffffffffffffffffffffff168260010160009054906101000a900473ffffffffffffffffffffffffffffffffffffffff1673ffffffffffffffffffffffffffffffffffffffff16867f6b79770de5d8088b433081e291dca5c683699757abe4b3a5c4bd224a10b5f48460405160405180910390a45050505050565b8060008060008381526020019081526020016000206003015411610aac576040517f08c379a0000000000000000000000000000000000000000000000000000000008152600401610aa390611b31565b60405180910390fd5b8160008082815260200190815260200160002060060160009054906101000a900460ff1615610b10576040517f08c379a0000000000000000000000000000000000000000000000000000000008152600401610b0790611b9d565b60405180910390fd5b60008082815260200190815260200160002060060160019054906101000a900460ff1615610b73576040517f08c379a0000000000000000000000000000000000000000000000000000000008152600401610b6a90611c09565b60405180910390fd5b600080600085815260200190815260200160002090508060010160009054906101000a900473ffffffffffffffffffffffffffffffffffffffff1673ffffffffffffffffffffffffffffffffffffffff163373ffffffffffffffffffffffffffffffffffffffff161480610c3657508060020160009054906101000a900473ffffffffffffffffffffffffffffffffffffffff1673ffffffffffffffffffffffffffffffffffffffff163373ffffffffffffffffffffffffffffffffffffffff16145b610c75576040517f08c379a0000000000000000000000000000000000000000000000000000000008152600401610c6c90611e05565b60405180910390fd5b60018160060160016101000a81548160ff02191690831515021790555060008160010160009054906101000a900473ffffffffffffffffffffffffffffffffffffffff1673ffffffffffffffffffffffffffffffffffffffff168260030154604051610ce090611cec565b60006040518083038185875af1925050503d8060008114610d1d576040519150601f19603f3d011682016040523d82523d6000602084013e610d22565b606091505b5050905080610d66576040517f08c379a0000000000000000000000000000000000000000000000000000000008152600401610d5d90611e97565b60405180910390fd5b847f5a399591cfd74c375a1ffd61c20221db0db82381f65516889ed13c8cd1f99d5b60405160405180910390a25050505050565b60006020528060005260406000206000915090508060000154908060010160009054906101000a900473ffffffffffffffffffffffffffffffffffffffff16908060020160009054906101000a900473ffffffffffffffffffffffffffffffffffffffff1690806003015490806004018054610e15906114ea565b80601f0160208091040260200160405190810160405280929190818152602001828054610e41906114ea565b8015610e8e5780601f10610e6357610100808354040283529160200191610e8e565b820191906000526020600020905b815481529060010190602001808311610e7157829003601f168201915b5050505050908060050154908060060160009054906101000a900460ff16908060060160019054906101000a900460ff16905088565b60405180610100016040528060008019168152602001600073ffffffffffffffffffffffffffffffffffffffff168152602001600073ffffffffffffffffffffffffffffffffffffffff1681526020016000815260200160608152602001600081526020016000151581526020016000151581525090565b6000604051905090565b600080fd5b600080fd5b6000819050919050565b610f6381610f50565b8114610f6e57600080fd5b50565b600081359050610f8081610f5a565b92915050565b600060208284031215610f9c57610f9b610f46565b5b6000610faa84828501610f71565b91505092915050565b610fbc81610f50565b82525050565b600073ffffffffffffffffffffffffffffffffffffffff82169050919050565b6000610fed82610fc2565b9050919050565b610ffd81610fe2565b82525050565b6000819050919050565b61101681611003565b82525050565b600081519050919050565b600082825260208201905092915050565b60005b8381101561105657808201518184015260208101905061103b565b60008484015250505050565b6000601f19601f8301169050919050565b600061107e8261101c565b6110888185611027565b9350611098818560208601611038565b6110a181611062565b840191505092915050565b60008115159050919050565b6110c1816110ac565b82525050565b6000610100830160008301516110e06000860182610fb3565b5060208301516110f36020860182610ff4565b5060408301516111066040860182610ff4565b506060830151611119606086018261100d565b50608083015184820360808601526111318282611073565b91505060a083015161114660a086018261100d565b5060c083015161115960c08601826110b8565b5060e083015161116c60e08601826110b8565b508091505092915050565b6000602082019050818103600083015261119181846110c7565b905092915050565b6111a281610fe2565b81146111ad57600080fd5b50565b6000813590506111bf81611199565b92915050565b600080fd5b600080fd5b7f4e487b7100000000000000000000000000000000000000000000000000000000600052604160045260246000fd5b61120782611062565b810181811067ffffffffffffffff82111715611226576112256111cf565b5b80604052505050565b6000611239610f3c565b905061124582826111fe565b919050565b600067ffffffffffffffff821115611265576112646111cf565b5b61126e82611062565b9050602081019050919050565b82818337600083830152505050565b600061129d6112988461124a565b61122f565b9050828152602081018484840111156112b9576112b86111ca565b5b6112c484828561127b565b509392505050565b600082601f8301126112e1576112e06111c5565b5b81356112f184826020860161128a565b91505092915050565b61130381611003565b811461130e57600080fd5b50565b600081359050611320816112fa565b92915050565b60008060006060848603121561133f5761133e610f46565b5b600061134d868287016111b0565b935050602084013567ffffffffffffffff81111561136e5761136d610f4b565b5b61137a868287016112cc565b925050604061138b86828701611311565b9150509250925092565b61139e81610f50565b82525050565b60006020820190506113b96000830184611395565b92915050565b6113c881610fe2565b82525050565b6113d781611003565b82525050565b600082825260208201905092915050565b60006113f98261101c565b61140381856113dd565b9350611413818560208601611038565b61141c81611062565b840191505092915050565b611430816110ac565b82525050565b60006101008201905061144c600083018b611395565b611459602083018a6113bf565b61146660408301896113bf565b61147360608301886113ce565b818103608083015261148581876113ee565b905061149460a08301866113ce565b6114a160c0830185611427565b6114ae60e0830184611427565b9998505050505050505050565b7f4e487b7100000000000000000000000000000000000000000000000000000000600052602260045260246000fd5b6000600282049050600182168061150257607f821691505b602082108103611515576115146114bb565b5b50919050565b7f41746f6d6963537761703a206d7573742073656e642045544800000000000000600082015250565b60006115516019836113dd565b915061155c8261151b565b602082019050919050565b6000602082019050818103600083015261158081611544565b9050919050565b7f41746f6d6963537761703a20696e76616c69642073656c6c6572000000000000600082015250565b60006115bd601a836113dd565b91506115c882611587565b602082019050919050565b600060208201905081810360008301526115ec816115b0565b9050919050565b7f41746f6d6963537761703a206275796572203d3d2073656c6c65720000000000600082015250565b6000611629601b836113dd565b9150611634826115f3565b602082019050919050565b600060208201905081810360008301526116588161161c565b9050919050565b7f41746f6d6963537761703a20717479206d757374206265203e20300000000000600082015250565b6000611695601b836113dd565b91506116a08261165f565b602082019050919050565b600060208201905081810360008301526116c481611688565b9050919050565b60008160601b9050919050565b60006116e3826116cb565b9050919050565b60006116f5826116d8565b9050919050565b61170d61170882610fe2565b6116ea565b82525050565b600081905092915050565b60006117298261101c565b6117338185611713565b9350611743818560208601611038565b80840191505092915050565b6000819050919050565b61176a61176582611003565b61174f565b82525050565b600061177c82886116fc565b60148201915061178c82876116fc565b60148201915061179c828661171e565b91506117a88285611759565b6020820191506117b88284611759565b6020820191508190509695505050505050565b7f41746f6d6963537761703a206475706c69636174652073776170000000000000600082015250565b6000611801601a836113dd565b915061180c826117cb565b602082019050919050565b60006020820190508181036000830152611830816117f4565b9050919050565b60008190508160005260206000209050919050565b60006020601f8301049050919050565b600082821b905092915050565b6000600883026118997fffffffffffffffffffffffffffffffffffffffffffffffffffffffffffffffff8261185c565b6118a3868361185c565b95508019841693508086168417925050509392505050565b6000819050919050565b60006118e06118db6118d684611003565b6118bb565b611003565b9050919050565b6000819050919050565b6118fa836118c5565b61190e611906826118e7565b848454611869565b825550505050565b600090565b611923611916565b61192e8184846118f1565b505050565b5b818110156119525761194760008261191b565b600181019050611934565b5050565b601f8211156119975761196881611837565b6119718461184c565b81016020851015611980578190505b61199461198c8561184c565b830182611933565b50505b505050565b600082821c905092915050565b60006119ba6000198460080261199c565b1980831691505092915050565b60006119d383836119a9565b9150826002028217905092915050565b6119ec8261101c565b67ffffffffffffffff811115611a0557611a046111cf565b5b611a0f82546114ea565b611a1a828285611956565b600060209050601f831160018114611a4d5760008415611a3b578287015190505b611a4585826119c7565b865550611aad565b601f198416611a5b86611837565b60005b82811015611a8357848901518255600182019150602085019450602081019050611a5e565b86831015611aa05784890151611a9c601f8916826119a9565b8355505b6001600288020188555050505b505050505050565b60006040820190508181036000830152611acf81856113ee565b9050611ade60208301846113ce565b9392505050565b7f41746f6d6963537761703a2073776170206e6f7420666f756e64000000000000600082015250565b6000611b1b601a836113dd565b9150611b2682611ae5565b602082019050919050565b60006020820190508181036000830152611b4a81611b0e565b9050919050565b7f41746f6d6963537761703a20616c726561647920657865637574656400000000600082015250565b6000611b87601c836113dd565b9150611b9282611b51565b602082019050919050565b60006020820190508181036000830152611bb681611b7a565b9050919050565b7f41746f6d6963537761703a20616c72656164792063616e63656c6c6564000000600082015250565b6000611bf3601d836113dd565b9150611bfe82611bbd565b602082019050919050565b60006020820190508181036000830152611c2281611be6565b9050919050565b7f41746f6d6963537761703a206f6e6c792073656c6c65722063616e20636f6e6660008201527f69726d0000000000000000000000000000000000000000000000000000000000602082015250565b6000611c856023836113dd565b9150611c9082611c29565b604082019050919050565b60006020820190508181036000830152611cb481611c78565b9050919050565b600081905092915050565b50565b6000611cd6600083611cbb565b9150611ce182611cc6565b600082019050919050565b6000611cf782611cc9565b9150819050919050565b7f41746f6d6963537761703a20455448207472616e7366657220746f2073656c6c60008201527f6572206661696c65640000000000000000000000000000000000000000000000602082015250565b6000611d5d6029836113dd565b9150611d6882611d01565b604082019050919050565b60006020820190508181036000830152611d8c81611d50565b9050919050565b7f41746f6d6963537761703a206e6f74206120706172747920746f20746869732060008201527f7377617000000000000000000000000000000000000000000000000000000000602082015250565b6000611def6024836113dd565b9150611dfa82611d93565b604082019050919050565b60006020820190508181036000830152611e1e81611de2565b9050919050565b7f41746f6d6963537761703a20726566756e6420746f206275796572206661696c60008201527f6564000000000000000000000000000000000000000000000000000000000000602082015250565b6000611e816022836113dd565b9150611e8c82611e25565b604082019050919050565b60006020820190508181036000830152611eb081611e74565b905091905056fea2646970667358221220a658a6853a8689423602acf0c18c9d83146233f2bc8ebc46dbf00b3c0772300564736f6c63430008130033",
  "linkReferences": {},
  "deployedLinkReferences": {}
}